:100000000C942A000C943F000C943F000C943F0089
:100010000C943F000C943F000C943F000C943F0064
:100020000C943F000C943F000C943F000C943F0054
:100030000C943F000C943F000C943F000C943F0044
:100040000C943F000C943F000C943F000C943F0034
:100050000C943F0011241FBECFE5D8E0DEBFCDBF1A
:1000600010E0A0E6B0E0ECE6F2E102C005900D92EF
:10007000AC38B107D9F70E94EF030C9414090C9423
:100080000000FC019B016130710591F4A081B181F8
:100090009C9101C0220F4A95EAF7822F809589230F
:1000A0008C930280F381E02D8081822B80830895E0
:1000B00061157105B1F4A081B1812C9181E090E0CE
:1000C000BC0102C0660F771F4A95E2F7AB0140956D
:1000D000822F84238C930280F381E02D80818423FE
:1000E000E5CF62307105B1F4A081B1812C9181E03E
:1000F00090E0BC0102C0660F771F4A95E2F7AB01A2
:10010000822F862B8C930280F381E02D8081409595
:10011000482340830895FC01A081B18161157105D8
:1001200011F41C9208956130710539F41C9202801B
:10013000F381E02D8FEF808308958FEF8C93028001
:10014000F381E02D10820895DC01F9016230710520
:1001500009F52130310561F412960D90BC91A02D66
:100160008C9101C0EE0F4A95EAF7E82BEC930895C5
:10017000EF2B81F41296ED91FC91208181E090E0CB
:10018000BC0102C0660F771F4A95E2F7AB014095AC
:10019000422340830895DC011296ED91FC91608327
:1001A0000895DC011496ED91FC91808121E030E00E
:1001B00001C0220F6A95EAF782230895DC011496A4
:1001C000ED91FC91808108951F93CF93DF93EC0113
:1001D000162F20E030E04D8162E070E08A819B8143
:1001E0000E94A40020E030E04C8162E070E08A814F
:1001F0009B810E94A400612F888199810E94CB007D
:1002000021E030E04E8162E070E08A819B810E94B3
:10021000A4008FE19EE40197F1F700C0000020E008
:1002200030E04E8162E070E08A819B81DF91CF9166
:100230001F910C94A4001F93CF93DF93EC01162F12
:1002400021E030E04C8162E070E08A819B810E9475
:10025000A40020E030E04D8162E070E08A819B8163
:100260000E94A400612F888199810E94CB0021E027
:1002700030E04E8162E070E08A819B810E94A400A0
:100280008FE19EE40197F1F700C0000020E030E02C
:100290004E8162E070E08A819B81DF91CF911F9156
:1002A0000C94A4000F931F93CF93DF93182F092F63
:1002B000EB016991611105C0DF91CF911F910F9101
:1002C0000895812F902F0E941B01F3CF61E00C94C1
:1002D000E400CF93DF93EC0162E070E088819981C4
:1002E0000E948B0060E0888199810E94CB004C8144
:1002F00062E070E08A819B810E9441004D8162E052
:1003000070E08A819B810E9441004E8162E070E032
:100310008A819B810E94410068E3CE010E94E40033
:100320006CE0CE010E94E40061E0CE010E94E40096
:1003300066E0CE01DF91CF910C94E400EF92FF9242
:100340000F931F93CF93DF9300D000D000D0CDB791
:10035000DEB77C0126E0E2E7F0E0CE010196DC01A9
:1003600001900D922A95E1F7D701ED91FC918C0156
:10037000E032F10590F4EA5EF64F0C94970440E009
:1003800060E070E00E94410087B187B906C041E09B
:1003900060E070E00E944100389AF7018281938109
:1003A0008130910509F44DC18330910509F45FC195
:1003B000892B09F047C187B18F6B87B943C142E0F0
:1003C00060E070E00E944100399AE7CF43E060E0CE
:1003D00070E00E94410087B18360D7CF44E060E0C5
:1003E00070E00E9441003A9AD8CF45E060E070E0AA
:1003F0000E94410087B18560C8CF46E060E070E0B0
:100400000E94410087B18660C0CF47E060E070E0A5
:100410000E94410087B18760B8CF40E060E070E0A3
:100420000E9441003B9AB9CF40E060E070E00E943A
:10043000410087B18A60A9CF41E060E070E00E948E
:10044000410087B18161A1CF42E060E070E00E948D
:10045000410087B18C6099CF42E060E070E00E947B
:10046000410087B18E6091CF40E060E070E00E9473
:10047000410041E060E070E0C8010E9441003C9A08
:100480008CCF40E060E070E00E94410042E060E01C
:1004900070E0C8010E94410087B1886176CF40E0DA
:1004A00060E070E00E94410041E060E070E0C8015F
:1004B0000E94410087B1896068CF40E060E070E051
:1004C0000E94410041E060E070E0C8010E944100EC
:1004D00087B18B605ACF41E060E070E00E9441003C
:1004E00042E060E070E0C8010E94410087B189618C
:1004F0004CCF41E060E070E00E94410042E060E0EB
:1005000070E0C8010E94410087B182613ECF42E0A5
:1005100060E070E00E94410087B18A6136CF43E01D
:1005200060E070E00E94410041E060E070E0C801DE
:100530000E94410087B1836128CF43E060E070E012
:100540000E94410042E060E070E0C8010E9441006A
:1005500087B18D601ACF43E060E070E00E944100F7
:1005600042E060E070E0C8010E94410087B18B6109
:100570000CCF43E060E070E00E94410042E060E0A8
:1005800070E0C8010E94410087B18F60FECE44E058
:1005900060E070E00E94410041E060E070E0C8016E
:1005A0000E94410087B18461F0CE44E060E070E0D9
:1005B0000E94410042E060E070E0C8010E944100FA
:1005C00087B18C61E2CE45E060E070E00E944100BE
:1005D00041E060E070E0C8010E94410087B18561A0
:1005E000D4CE45E060E070E00E94410042E060E06F
:1005F00070E0C8010E94410087B18D61C6CE46E01F
:1006000060E070E00E94410041E060E070E0C801FD
:100610000E94410087B18661B8CE47E060E070E09B
:100620000E94410041E060E070E0C8010E9441008A
:1006300087B18761AACE87B18E61A7CE87B18F615E
:10064000A4CE3E9A3D9A86B1D70114969C91892BEF
:10065000806886B90F900F900F900F900F900F90B9
:10066000DF91CF911F910F91FF90EF90089587B187
:100670008066A3CECF92DF92EF92FF92369A3699A0
:10068000FECF84B165B1829586958695837094E09E
:10069000699FB0011124682B072E000C880B990B61
:1006A0000E9440056B017C01C701B601FF90EF90ED
:1006B000DF90CF9008954F925F926F927F928F92CA
:1006C0009F92AF92BF92CF92DF92EF92FF92CF9321
:1006D000DF93369A3699FECF24B185B122952695BF
:1006E0002695237034E0839FC0011124822B25E0DE
:1006F000289FB001299F700D1124072E000C880B34
:10070000990B0E94400520E030EC4FE754E42B01A8
:100710003C01C301B2010E949D0420E030E04AE7A1
:1007200054E44B015C01C501B4010E94CC056B018E
:100730007C01C701B6010E940F05CB01DF91CF916B
:10074000FF90EF90DF90CF90BF90AF909F908F90F1
:100750007F906F905F904F9008950F931F93CF936A
:10076000DF9300D000D000D0CDB7DEB78C0186E09B
:10077000E8E7F0E0DE01119601900D928A95E1F72D
:1007800042E062E070E0CE0101960E94410020E06C
:1007900030E042E062E070E0CE0101960E94A400E9
:1007A0001BB88AB188618AB980B58C6080BD10BCE5
:1007B000F801808189B90F900F900F900F900F90E2
:1007C0000F90DF91CF911F910F910895FC018191BE
:1007D000811101C008958CB95E9BFECFF8CFCDB7D3
:1007E000DEB7AA970FB6F894DEBF0FBECDBF86E086
:1007F000E0E6F0E0DE01939601900D928A95E1F734
:1008000086E0E6E6F0E0DE015D9601900D928A95C5
:10081000E1F7CE014D96998B888B06969B8B8A8B40
:1008200087E08C8B86E0F82EFD8A85E08E8B8E012A
:10083000005F1F4FC8010E94690183E390E09AA7FF
:1008400089A7CE0189960E94AD03ECE6F0E0DE01B7
:10085000579601900D92FA94E1F7CE0147960E94C7
:100860009E0138019AE0E92EF12C24E6822E912C8B
:1008700038EEA32E33E0B32E4EE7C42E40E0D42E44
:100880008E010F5F1F4F0E945B03382F292FB70186
:100890000E9483049F938F93CB01B7010E9483042E
:1008A0009F938F93832F922FB4010E948304CB01D7
:1008B000B7010E9483049F938F93832F922FB501DA
:1008C0000E9483047F936F93DF92CF921F930F93C5
:1008D0000E943906C8010E94E603B801C3010E94C4
:1008E00052012FEF84E39CE0215080409040E1F7DB
:1008F00000C00000C3010E9466010FB6F894DEBF7D
:100900000FBECDBFC0CFAA1BBB1B51E107C0AA1FA2
:10091000BB1FA617B70710F0A61BB70B881F991FA0
:100920005A95A9F780959095BC01CD010895EE0FD9
:10093000FF1F0590F491E02D09940E94B1040C94DE
:1009400092050E948B0558F00E94840540F029F41E
:100950005F3F29F00C947B0551110C94C6050C9453
:1009600081050E94A30568F39923B1F3552391F300
:10097000951B550BBB27AA2762177307840738F00E
:100980009F5F5F4F220F331F441FAA1FA9F335D06B
:100990000E2E3AF0E0E832D091505040E695001C1F
:1009A000CAF72BD0FE2F29D0660F771F881FBB1FD9
:1009B000261737074807AB07B0E809F0BB0B802DB7
:1009C000BF01FF2793585F4F3AF09E3F510578F0E3
:1009D0000C947B050C94C6055F3FE4F3983ED4F37A
:1009E000869577956795B795F7959F5FC9F7880FB7
:1009F000911D9695879597F90895E1E0660F771F09
:100A0000881FBB1F621773078407BA0720F0621B99
:100A1000730B840BBA0BEE1F88F7E09508950E94C4
:100A2000AB0588F09F5798F0B92F9927B751B0F0D0
:100A3000E1F0660F771F881F991F1AF0BA95C9F762
:100A400014C0B13091F00E94C505B1E008950C9436
:100A5000C505672F782F8827B85F39F0B93FCCF3E9
:100A6000869577956795B395D9F73EF490958095DF
:100A7000709561957F4F8F4F9F4F0895E89409C0FF
:100A800097FB3EF490958095709561957F4F8F4FC1
:100A90009F4F9923A9F0F92F96E9BB279395F695D7
:100AA000879577956795B795F111F8CFFAF4BB0F55
:100AB00011F460FF1BC06F5F7F4F8F4F9F4F16C0B9
:100AC000882311F096E911C0772321F09EE8872F43
:100AD000762F05C0662371F096E8862F70E060E0FF
:100AE0002AF09A95660F771F881FDAF7880F969578
:100AF000879597F9089597F99F6780E870E060E01F
:100B000008959FEF80EC089500240A9416161706A6
:100B100018060906089500240A94121613061406EE
:100B200005060895092E0394000C11F4882352F051
:100B3000BB0F40F4BF2B11F460FF04C06F5F7F4F09
:100B40008F4F9F4F089557FD9058440F551F59F0F0
:100B50005F3F71F04795880F97FB991F61F09F3FAA
:100B600079F087950895121613061406551FF2CFD3
:100B70004695F1DF08C0161617061806991FF1CF23
:100B800086957105610508940895E894BB2766274A
:100B90007727CB0197F908950E94DF050C94920501
:100BA0000E94840538F00E948B0520F0952311F0F7
:100BB0000C947B050C94810511240C94C6050E94AD
:100BC000A30570F3959FC1F3950F50E0551F629FE9
:100BD000F001729FBB27F00DB11D639FAA27F00D96
:100BE000B11DAA1F649F6627B00DA11D661F829FBD
:100BF0002227B00DA11D621F739FB00DA11D621FA2
:100C0000839FA00D611D221F749F3327A00D611DBE
:100C1000231F849F600D211D822F762F6A2F1124A0
:100C20009F5750409AF0F1F088234AF0EE0FFF1FD3
:100C3000BB1F661F771F881F91505040A9F79E3F2A
:100C4000510580F00C947B050C94C6055F3FE4F3DE
:100C5000983ED4F3869577956795B795F795E79580
:100C60009F5FC1F7FE2B880F911D9695879597F989
:100C70000895AEE0B0E0EFE3F6E00C94EB080D89E8
:100C80001E8986E08C831A8309838FEF9FE79E83FA
:100C90008D83AE01475E5F4F6F89788DCE010196DF
:100CA0000E945C062F813885020F131FF801108205
:100CB0002E96E4E00C940709ABE0B0E0E2E6F6E043
:100CC0000C94E0086C017B018A01FC0117821682FA
:100CD000838181FFCBC19AE0592EF6012381F70170
:100CE00023FD859123FF81917F01882309F45BC156
:100CF000853239F423FD959123FF91917F0195323F
:100D000029F4B60190E00E944F08E7CF912C612CA6
:100D1000712CFFE1F71540F19B32D9F058F4903275
:100D2000D1F09332F1F09E3299F576FC3CC1689493
:100D300076F806C09D3291F09033C1F4689470F853
:100D4000F70123FD959123FF91917F019111E1CF4F
:100D500026C0689471F8689472F8F2CF689473F8BA
:100D6000EFCF689474F8ECCF77FC19C080ED890F51
:100D70008A30C8F676FE05C0959C800D1124982E09
:100D8000DFCF659C800D1124682E689475F8D8CF4C
:100D90009C3619F4689477F8D3CF983689F2892F66
:100DA0008F7D8554833008F488C0933609F4A6C03B
:100DB000933709F4A9C0933509F4B5C0943619F0F6
:100DC000993609F0DFC0F80177FED5C061917191C5
:100DD000819191918F01272D2F76822E97FF09C047
:100DE00090958095709561957F4F8F4F9F4F689438
:100DF00087F82AE030E0AE014F5F5F4F5A010E9452
:100E00007F088A19A82EBA2C782C86FE0CC0E8948C
:100E100070F8A91440F484FE05C082FC03C0F82DCC
:100E2000FE7E7F2EB92C74FEFAC0FE01EA0DF11D84
:100E30008081803309F0ECC0272D297E722E73FC4F
:100E40000EC070FEFBC09A2CB61418F4960C9B18BA
:100E5000B62C862D8B196B1408F480E0B80EB614EE
:100E600008F0EEC06B1874FEEDC0B60180E390E0B0
:100E70000E944F0872FE09C088E590E071FC02C034
:100E800088E790E0B6010E944F08A91408F4E7C073
:100E9000AA94B12C4FEFA41AB40ACE0101964C01CA
:100EA000A80EB91EF50182915F01B60190E00E9483
:100EB0004F088A149B04B1F717C00C5F1F4F8FE3D4
:100EC000898388248394912CAE014F5F5F4F5A0130
:100ED000E89477F873FC05C0862D90E08816990693
:100EE00098F181149104B9F5662009F4F6CEB601A3
:100EF00080E290E00E944F086A94F6CFF80180816A
:100F000089830E5F1F4FDDCFF801A190B1908F0153
:100F1000692D70E076FC02C06FEF7FEFC5010E9483
:100F200044084C01D5CFF801A190B1908F01692DF3
:100F300070E076FC02C06FEF7FEFC5010E943908B8
:100F40004C01689477F8C6CFB60180E290E00E9429
:100F50004F086A94C1CFF50177FC859177FE8191A6
:100F60005F01B60190E00E944F0861106A94F1E0C1
:100F70008F1A9108B6CF61917191072E000C880BE2
:100F8000990B28CF872CE89484F82AE030E0953735
:100F900039F1572D597F852E9037A9F058F498359F
:100FA000A9F09F36D9F0F601868197812B96EFE064
:100FB0000C94FC089837B9F784FE02C0689482F854
:100FC00020E130E00DC0689484F8F6CF74FE03C0D1
:100FD000852F8660882E20E132E002C028E030E0D4
:100FE000F80187FE10C061917191819191918F01FB
:100FF000FE0131965F01AF010E947F088A19A82E79
:10100000E89487F800CF6191719180E090E0EFCF94
:1010100072FC02C0B39413CFB394B39410CF872D56
:101020008678882309F40BCFF5CFB60180E290E0F3
:101030000E944F0883948614C0F30BCF8B2CFBCFF8
:10104000612C11CF872D8678882309F41ECF80E28A
:1010500071FC8BE277FC8DE2B60190E014CFB60113
:1010600080E390E00E944F089A940FCF8FEF9FEF9C
:101070009DCFFC010590615070400110D8F780951C
:1010800090958E0F9F1F0895FC0161507040019054
:101090000110D8F7809590958E0F9F1F08950F939C
:1010A0001F93CF93DF93182F092FEB018B8181FDC5
:1010B00009C01FEF0FEF812F902FDF91CF911F916C
:1010C0000F91089582FF14C02E813F818C819D81F4
:1010D000281739073CF4E881F981CF0101969983FB
:1010E000888310838E819F8101969F838E83E3CFB7
:1010F000E885F985812F0995892BA1F3DACFFA01CB
:10110000AA27283051F1203181F1E8946F936E7F46
:101110006E5F7F4F8F4F9F4FAF4FB1E03ED0B4E037
:101120003CD0670F781F891F9A1FA11D680F791F78
:101130008A1F911DA11D6A0F711D811D911DA11D89
:1011400020D009F468943F912AE0269F1124301999
:10115000305D3193DEF6CF010895462F4770405D34
:101160004193B3E00FD0C9F7F6CF462F4F70405DE3
:101170004A3318F0495D31FD4052419302D0A9F73E
:10118000EACFB4E0A6959795879577956795BA9538
:10119000C9F700976105710508959B01AC010A2EFE
:1011A00006945795479537952795BA95C9F7620FD5
:1011B000731F841F951FA01D08952F923F924F9279
:1011C0005F926F927F928F929F92AF92BF92CF92D7
:1011D000DF92EF92FF920F931F93CF93DF93CDB7E0
:1011E000DEB7CA1BDB0B0FB6F894DEBF0FBECDBF58
:1011F00009942A88398848885F846E847D848C8429
:101200009B84AA84B984C884DF80EE80FD800C8131
:101210001B81AA81B981CE0FD11D0FB6F894DEBF14
:101220000FBECDBFED010895F894FFCFBF01C701F8
:10123000DF01E601EE01F501FD0105020D024F029D
:1012400014025D0224029D022C02B90234021C0227
:1012500079028F02C702E302FF020D0341026B0213
:0C1260008702AB02D502F1021B031E0343
:10126C003100320030003400350033000000010042
:10127C0007003A003B003900310032003000256491
:0C128C002E25642564256420560A00000D
:00000001FF
