:100000000C942A000C9447000C9447000C94470071
:100010000C9447000C9447000C9447000C94470044
:100020000C9447000C9447000C9447000C94470034
:100030000C9447000C9447000C9447000C94470024
:100040000C9447000C9447000C9447000C94470014
:100050000C94470011241FBECFE5D8E0DEBFCDBF12
:1000600010E0A0E6B0E0E2EBF4E002C005900D92F3
:10007000A436B107D9F720E0A4E6B0E001C01D9294
:10008000A137B207E1F70E941E020C9450020C94B3
:100090000000FC019B016130710591F4A081B181E8
:1000A0009C9101C0220F4A95EAF7822F80958923FF
:1000B0008C930280F381E02D8081822B80830895D0
:1000C00061157105B1F4A081B1812C9181E090E0BE
:1000D000BC0102C0660F771F4A95E2F7AB0140955D
:1000E000822F84238C930280F381E02D80818423EE
:1000F000E5CF62307105B1F4A081B1812C9181E02E
:1001000090E0BC0102C0660F771F4A95E2F7AB0191
:10011000822F862B8C930280F381E02D8081409585
:10012000482340830895FC01A081B18161157105C8
:1001300011F41C9208956130710539F41C9202800B
:10014000F381E02D8FEF808308958FEF8C930280F1
:10015000F381E02D10820895DC01F9016230710510
:1001600009F52130310561F412960D90BC91A02D56
:100170008C9101C0EE0F4A95EAF7E82BEC930895B5
:10018000EF2B81F41296ED91FC91208181E090E0BB
:10019000BC0102C0660F771F4A95E2F7AB0140959C
:1001A000422340830895DC011296ED91FC91608317
:1001B0000895DC011496ED91FC91808121E030E0FE
:1001C00001C0220F6A95EAF782230895DC01149694
:1001D000ED91FC9180810895E4E6F0E0DC018C91E2
:1001E000828381E090E0968385831182108214825D
:1001F0001382CF010E94800184E690E00E941402E5
:1002000065E08AE00E94020284E690E00E940A0211
:1002100084E690E00E94140267E08BE00E940202F4
:1002200084E690E00E940A0284E690E00E941402B4
:1002300061E08CE00E94020284E690E00E940A02E3
:1002400084E690E00E94140260E08FE00E940202C7
:1002500084E690E00C940A02CF93FC0180818093A5
:100260006600C1E084E690E00E94140260E08CE049
:100270000E94020260E08C2F0E94020284E690E05D
:100280000E940A02CF5FC93069F7CF910895CF93DA
:10029000FC01808180936600C1E084E690E00E94CA
:1002A000140260E08CE00E9402026FEF8C2F0E942B
:1002B000020284E690E00E940A02CF5FC93069F72B
:1002C000CF9108950F931F93CF938B01FC018081F1
:1002D00080936600C1E084E690E00E941402F80179
:1002E00061918F018C2F0E94020284E690E00E94AF
:1002F0000A02CF5FC93079F7CF911F910F9108950E
:10030000CF93DF93EC0187E390E090936C008093B0
:100310006B0086E390E09093700080936F0088E319
:1003200090E090936E0080936D0047E062E070E093
:100330008BE690E00E94490046E060E070E08BE6CA
:1003400090E00E94490045E062E070E08BE690E0BA
:100350000E94490020E030E047E062E070E08BE678
:1003600090E00E94AC0020E030E045E062E070E008
:100370008BE690E00E94AC004A8162E070E08BE680
:1003800090E00E94490021E030E04A8162E070E0A4
:100390008BE690E00E94AC0080E48DB98D819E8157
:1003A000009779F46D9A88819981009771F46C9A1D
:1003B000EB81FC81E730F10568F4EE5AFD4F0C94B7
:1003C0004A02019781F76D98EECF019789F76C98F3
:1003D000EFCF709ADF91CF9108958DB18C7F8DB959
:1003E000F9CF709A689A6998F5CF709A699A689867
:1003F000F1CF709A8DB18360F2CF8FB9779BFECF2A
:100400008FB10895CF93C62F0E94FD018C2FCF91FD
:100410000C94FD0121E030E0FC01428162E070E0DB
:100420008BE690E00C94AC0020E030E0FC014281CF
:1004300062E070E08BE690E00C94AC0000D00F928C
:10044000CDB7DEB78091600090916100A09162000D
:1004500089839A83AB838E010F5F1F4FC8010E946F
:10046000EC00C8010E942C012FEF84E39CE0215096
:1004700080409040E1F700C00000C8010E944701A1
:100480002FEF84E39CE0215080409040E1F700C0D2
:100490000000E7CFEE0FFF1F0590F491E02D0994C7
:1004A000F894FFCFED01F201F901FA01E901F10140
:0204B000F50154
:0404B2000401000041
:00000001FF
