:100000000C942A000C9447000C9447000C94470071
:100010000C9447000C9447000C9447000C94470044
:100020000C9447000C9447000C9447000C94470034
:100030000C9447000C9447000C9447000C94470024
:100040000C9447000C9447000C9447000C94470014
:100050000C94470011241FBECFE5D8E0DEBFCDBF12
:1000600010E0A0E6B0E0E6ECF5E002C005900D92ED
:10007000A037B107D9F720E0A0E7B0E001C01D929A
:10008000A437B207E1F70E9480020C94E1020C94BD
:100090000000CF93DF93EC014A8162E070E0888139
:1000A00099810E9414014B8162E070E088819981FE
:1000B000DF91CF910C941401FC01428162E070E069
:1000C000808191810E94140187EC90E00197F1F703
:1000D00000C000000895CF93DF93EC014A8162E0F5
:1000E00070E0888199810E94140187EC90E001976B
:1000F000F1F700C000004B8160E070E088819981D9
:100100000E94140187EC90E00197F1F700C0000015
:100110004A8160E070E0888199810E94140187EC37
:1001200090E00197F1F700C00000DF91CF910895B2
:100130000F931F93CF93DF93EC01162F08E04B81B1
:1001400062E070E0888199810E94140187EC90E060
:100150000197F1F700C000004A818881998160E031
:1001600070E010FD02C062E070E00E94140187ECB4
:1001700090E00197F1F700C000004B8160E070E073
:10018000888199810E94140187EC90E00197F1F732
:1001900000C0000016950A9591F64B8162E070E070
:1001A000888199810E9414014A8160E070E0888111
:1001B00099810E94140187EC90E00197F1F700C04B
:1001C00000004B8160E070E0888199810E941401F9
:1001D00087EC90E00197F1F700C000006A81888108
:1001E00099810E94A401811107C04A8162E070E0F8
:1001F000888199810E94140187EC90E00197F1F7C2
:1002000000C000004B8162E070E0888199810E940B
:10021000140187EC90E00197F1F700C00000DF9136
:10022000CF911F910F910895FC019B0161307105E1
:1002300091F4A081B1819C9101C0220F4A95EAF707
:10024000822F809589238C930280F381E02D808119
:10025000822B8083089561157105B1F4A081B1816D
:100260002C9181E090E0BC0102C0660F771F4A9597
:10027000E2F7AB014095822F84238C930280F381B7
:10028000E02D80818423E5CF62307105B1F4A08137
:10029000B1812C9181E090E0BC0102C0660F771F14
:1002A0004A95E2F7AB01822F862B8C930280F38173
:1002B000E02D80814095482340830895FC01A08172
:1002C000B1816115710511F41C92089561307105B9
:1002D00039F41C920280F381E02D8FEF8083089522
:1002E0008FEF8C930280F381E02D10820895DC0162
:1002F000F9016230710509F52130310561F412967A
:100300000D90BC91A02D8C9101C0EE0F4A95EAF79B
:10031000E82BEC930895EF2B81F41296ED91FC916C
:10032000208181E090E0BC0102C0660F771F4A95F2
:10033000E2F7AB014095422340830895DC01129619
:10034000ED91FC9160830895DC011496ED91FC9190
:10035000808121E030E001C0220F6A95EAF7822314
:100360000895DC011496ED91FC9180810895EF923F
:10037000FF920F931F93CF93DF938C01EB0180E7E4
:1003800090E00E945C0060E480E790E00E949800AA
:1003900080E790E00E946B0080E790E00E945C00A4
:1003A00060EC80E790E00E9498007E0184E0E80E17
:1003B000F11C699180E790E00E949800EC16FD0620
:1003C000C1F780E790E00E946B0080E790E00E9418
:1003D0005C00F80164816860605880E790E00E94EA
:1003E000980080E790E0DF91CF911F910F91FF90EF
:1003F000EF900C946B008A3030F4E82FF0E0EA596B
:10040000FF4F8081089580E008957F928F929F92A0
:10041000AF92BF92CF92DF92EF92FF920F931F9312
:10042000CF93DF93EC018B01603187E278073CF5D5
:100430006931ECEF7E070CF44BC07B0116161706F2
:1004400014F1EE24FF24E61AF70A672BE1F41D826B
:100450001E821F828FE38887BE016B5F7F4FCE01B4
:10046000DF91CF911F910F91FF90EF90DF90CF9090
:10047000BF90AF909F908F907F900C94B7012FE02A
:10048000E22E27E2F22E5E01F9E0AF0EB11CD12C74
:100490008AE0882E912CC701B4010E94B902762E01
:1004A000C72E0E94FB01F50182935F01D394F4E013
:1004B000DF1629F0E72CFC2CE114F10461F710168B
:1004C000110654F2FE01ED19F10980E48087C4CFD2
:1004D00097EEE92E93E0F92ED6CFFC01A0E7B0E02D
:1004E0008081918111969C938E93828112968C9338
:1004F0001297838113968C931397CD010C94490026
:10050000CDB7DEB72F970FB6F894DEBF0FBECDBFC5
:1005100086E0E0E6F0E0DE011A9601900D928A9501
:10052000E1F7FE01339687E0DF011D928A95E9F736
:10053000CE010A969A83898381E08C8384E08D833F
:100540008E010F5F1F4FC8010E946D02F02EE12E39
:1005500007EE13E0B8018F2D9E2D0E9405028FE15A
:100560009EE40197F1F700C000000150104091F7A0
:10057000EFCF97FB072E16F4009407D077FD09D034
:100580000E94CD0207FC05D03EF4909581959F4FC7
:100590000895709561957F4F0895AA1BBB1B51E18B
:1005A00007C0AA1FBB1FA617B70710F0A61BB70BE3
:1005B000881F991F5A95A9F780959095BC01CD0188
:0605C0000895F894FFCF3E
:1005C6003A003B0039003F065B4F666D7D077F6F43
:00000001FF
