:100000000C942A000C9447000C9447000C94470071
:100010000C9447000C9447000C9447000C94470044
:100020000C9447000C9447000C9447000C94470034
:100030000C9447000C9447000C9447000C94470024
:100040000C9447000C9447000C9447000C94470014
:100050000C94470011241FBECFE5D8E0DEBFCDBF12
:1000600010E0A0E6B0E0E0E7F6E002C005900D92F7
:10007000A838B107D9F720E0A8E8B0E001C01D9288
:10008000AC38B207E1F70E94C3020C9436030C941B
:100090000000CF93DF93EC014A8162E070E0888139
:1000A00099810E9414014B8162E070E088819981FE
:1000B000DF91CF910C941401FC01428162E070E069
:1000C000808191810E94140187EC90E00197F1F703
:1000D00000C000000895CF93DF93EC014A8162E0F5
:1000E00070E0888199810E94140187EC90E001976B
:1000F000F1F700C000004B8160E070E088819981D9
:100100000E94140187EC90E00197F1F700C0000015
:100110004A8160E070E0888199810E94140187EC37
:1001200090E00197F1F700C00000DF91CF910895B2
:100130000F931F93CF93DF93EC01162F08E04B81B1
:1001400062E070E0888199810E94140187EC90E060
:100150000197F1F700C000004A818881998160E031
:1001600070E010FD02C062E070E00E94140187ECB4
:1001700090E00197F1F700C000004B8160E070E073
:10018000888199810E94140187EC90E00197F1F732
:1001900000C0000016950A9591F64B8162E070E070
:1001A000888199810E9414014A8160E070E0888111
:1001B00099810E94140187EC90E00197F1F700C04B
:1001C00000004B8160E070E0888199810E941401F9
:1001D00087EC90E00197F1F700C000006A81888108
:1001E00099810E94A401811107C04A8162E070E0F8
:1001F000888199810E94140187EC90E00197F1F7C2
:1002000000C000004B8162E070E0888199810E940B
:10021000140187EC90E00197F1F700C00000DF9136
:10022000CF911F910F910895FC019B0161307105E1
:1002300091F4A081B1819C9101C0220F4A95EAF707
:10024000822F809589238C930280F381E02D808119
:10025000822B8083089561157105B1F4A081B1816D
:100260002C9181E090E0BC0102C0660F771F4A9597
:10027000E2F7AB014095822F84238C930280F381B7
:10028000E02D80818423E5CF62307105B1F4A08137
:10029000B1812C9181E090E0BC0102C0660F771F14
:1002A0004A95E2F7AB01822F862B8C930280F38173
:1002B000E02D80814095482340830895FC01A08172
:1002C000B1816115710511F41C92089561307105B9
:1002D00039F41C920280F381E02D8FEF8083089522
:1002E0008FEF8C930280F381E02D10820895DC0162
:1002F000F9016230710509F52130310561F412967A
:100300000D90BC91A02D8C9101C0EE0F4A95EAF79B
:10031000E82BEC930895EF2B81F41296ED91FC916C
:10032000208181E090E0BC0102C0660F771F4A95F2
:10033000E2F7AB014095422340830895DC01129619
:10034000ED91FC9160830895DC011496ED91FC9190
:10035000808121E030E001C0220F6A95EAF7822314
:100360000895DC011496ED91FC9180810895EF923F
:10037000FF920F931F93CF93DF938C01EB0188E8DB
:1003800090E00E945C0060E488E890E00E949800A1
:1003900088E890E00E946B0088E890E00E945C0092
:1003A00060EC88E890E00E9498007E0184E0E80E0E
:1003B000F11C699188E890E00E949800EC16FD0617
:1003C000C1F788E890E00E946B0088E890E00E9406
:1003D0005C00F80164816860605888E890E00E94E1
:1003E000980088E890E0DF91CF911F910F91FF90E6
:1003F000EF900C946B008F929F92AF92BF92CF922E
:10040000DF92EF92FF920F931F93CF93DF937C01C4
:10041000D62E5801042F10E0E901C12C4C0185E0D3
:10042000880E911CCD100DC0DF91CF911F910F91BF
:10043000FF90EF90DF90CF90BF90AF909F908F9004
:1004400008958881F7018583898186838A818783DE
:100450008B818087B401C7010E94B70180E08A15B3
:100460001B0420F0C394C00FD11FDCCFEFECF7E0EA
:100470003197F1F700C000008F5FF1CF8A3030F480
:10048000E82FF0E0E258FF4F8081089580E0089562
:100490007F928F929F92AF92BF92CF92DF92EF9214
:1004A000FF920F931F93CF93DF93EC018B01603189
:1004B00087E278073CF56931ECEF7E070CF44BC01E
:1004C0007B011616170614F1EE24FF24E61AF70A2C
:1004D000672BE1F41D821E821F828FE38887BE0195
:1004E0006B5F7F4FCE01DF91CF911F910F91FF90F6
:1004F000EF90DF90CF90BF90AF909F908F907F90C4
:100500000C94B7012FE0E22E27E2F22E5E01F9E013
:10051000AF0EB11CD12C8AE0882E912CC701B401FA
:100520000E940E03762EC72E0E943E02F501829392
:100530005F01D394F4E0DF1629F0E72CFC2CE114E2
:10054000F10461F71016110654F2FE01ED19F109DC
:1005500080E48087C4CF97EEE92E93E0F92ED6CFC2
:10056000FC01A8E8B0E08081918111969C938E9364
:10057000828112968C931297838113968C93139792
:10058000CD010C944900CDB7DEB7A7970FB6F8940C
:10059000DEBF0FBECDBF88E1E0E6F0E09E012F5F39
:1005A0003F4F7901D90101900D928A95E1F786E0DC
:1005B000E8E7F0E0DE01929601900D928A95E1F76E
:1005C000FE017B9687E0DF011D928A95E9F7CE0157
:1005D00082969A8F898F81E08C8F85E08D8F8E0136
:1005E000075E1F4FC8010E94B00263E975E0C801B1
:1005F0000E944802BFEF29E638E1B1502040304068
:10060000E1F700C000006701780102E310E0960105
:1006100044E066E0C7010E94FB01F7CF97FB072E7D
:1006200016F4009407D077FD09D00E94220307FC3E
:1006300005D03EF4909581959F4F089570956195F2
:100640007F4F0895AA1BBB1B51E107C0AA1FBB1F08
:10065000A617B70710F0A61BB70B881F991F5A954E
:10066000A9F780959095BC01CD010895F894FFCF2E
:1006700023232323070707070E0E0E0E1C1C1C1C2A
:1006800038383838313131313A003B0039003F06D3
:080690005B4F666D7D077F6F73
:00000001FF
