:100000000C942A000C943F000C943F000C943F0089
:100010000C943F000C943F000C943F000C943F0064
:100020000C943F000C943F000C943F000C943F0054
:100030000C943F000C943F000C943F000C943F0044
:100040000C943F000C943F000C943F000C943F0034
:100050000C943F0011241FBECFE5D8E0DEBFCDBF1A
:1000600010E0A0E6B0E0E8E3F2E002C005900D92F7
:10007000A636B107D9F70E94E4000C941A010C943B
:100080000000FC019B016130710591F4A081B181F8
:100090009C9101C0220F4A95EAF7822F809589230F
:1000A0008C930280F381E02D8081822B80830895E0
:1000B00061157105B1F4A081B1812C9181E090E0CE
:1000C000BC0102C0660F771F4A95E2F7AB0140956D
:1000D000822F84238C930280F381E02D80818423FE
:1000E000E5CF62307105B1F4A081B1812C9181E03E
:1000F00090E0BC0102C0660F771F4A95E2F7AB01A2
:10010000822F862B8C930280F381E02D8081409595
:10011000482340830895FC01A081B18161157105D8
:1001200011F41C9208956130710539F41C9202801B
:10013000F381E02D8FEF808308958FEF8C93028001
:10014000F381E02D10820895DC01F9016230710520
:1001500009F52130310561F412960D90BC91A02D66
:100160008C9101C0EE0F4A95EAF7E82BEC930895C5
:10017000EF2B81F41296ED91FC91208181E090E0CB
:10018000BC0102C0660F771F4A95E2F7AB014095AC
:10019000422340830895DC011296ED91FC91608327
:1001A0000895DC011496ED91FC91808190E002C0ED
:1001B000959587956A95E2F781700895DC0114960C
:1001C000ED91FC918081089500D000D000D0CDB792
:1001D000DEB786E0E0E6F0E08E010F5F1F4FD8014A
:1001E00001900D928A95E1F747E060E070E0C80168
:1001F0000E94410046E062E070E0C8010E944100B8
:1002000067E0C8010E94D10021E030E0811102C006
:1002100020E030E046E062E070E0C8010E94A40007
:100220002FEF80E792E0215080409040E1F700C03E
:080230000000E6CFF894FFCFB7
:0602380034003500330024
:00000001FF
