:100000000C942A000C943F000C943F000C943F0089
:100010000C943F000C943F000C943F000C943F0064
:100020000C943F000C943F000C943F000C943F0054
:100030000C943F000C943F000C943F000C943F0044
:100040000C943F000C943F000C943F000C943F0034
:100050000C943F0011241FBECFE5D8E0DEBFCDBF1A
:1000600010E0A0E6B0E0E2EDF3E002C005900D92F2
:10007000A637B107D9F70E949B010C94E7010C94B5
:100080000000FC019B016130710591F4A081B181F8
:100090009C9101C0220F4A95EAF7822F809589230F
:1000A0008C930280F381E02D8081822B80830895E0
:1000B00061157105B1F4A081B1812C9181E090E0CE
:1000C000BC0102C0660F771F4A95E2F7AB0140956D
:1000D000822F84238C930280F381E02D80818423FE
:1000E000E5CF62307105B1F4A081B1812C9181E03E
:1000F00090E0BC0102C0660F771F4A95E2F7AB01A2
:10010000822F862B8C930280F381E02D8081409595
:10011000482340830895FC01A081B18161157105D8
:1001200011F41C9208956130710539F41C9202801B
:10013000F381E02D8FEF808308958FEF8C93028001
:10014000F381E02D10820895DC01F9016230710520
:1001500009F52130310561F412960D90BC91A02D66
:100160008C9101C0EE0F4A95EAF7E82BEC930895C5
:10017000EF2B81F41296ED91FC91208181E090E0CB
:10018000BC0102C0660F771F4A95E2F7AB014095AC
:10019000422340830895DC011296ED91FC91608327
:1001A0000895DC011496ED91FC91808121E030E00E
:1001B00001C0220F6A95EAF782230895DC011496A4
:1001C000ED91FC91808108951F93CF93DF93EC0113
:1001D000162F20E030E04D8162E070E08A819B8143
:1001E0000E94A40020E030E04C8162E070E08A814F
:1001F0009B810E94A400612F888199810E94CB007D
:1002000021E030E04E8162E070E08A819B810E94B3
:10021000A4008FE19EE40197F1F700C0000020E008
:1002200030E04E8162E070E08A819B81DF91CF9166
:100230001F910C94A4001F93CF93DF93EC01162F12
:1002400021E030E04C8162E070E08A819B810E9475
:10025000A40020E030E04D8162E070E08A819B8163
:100260000E94A400612F888199810E94CB0021E027
:1002700030E04E8162E070E08A819B810E94A400A0
:100280008FE19EE40197F1F700C0000020E030E02C
:100290004E8162E070E08A819B81DF91CF911F9156
:1002A0000C94A4000F931F93CF93DF93182F092F63
:1002B000EB016991611105C0DF91CF911F910F9101
:1002C0000895812F902F0E941B01F3CFCF93DF93CE
:1002D000EC0162E070E0888199810E948B0060E00F
:1002E000888199810E94CB004C8162E070E08A8114
:1002F0009B810E9441004D8162E070E08A819B8178
:100300000E9441004E8162E070E08A819B810E94E0
:10031000410068E3CE010E94E4006CE0CE010E943F
:10032000E40061E0CE010E94E40066E0CE01DF91CE
:10033000CF910C94E400CDB7DEB76D970FB6F8946B
:10034000DEBF0FBECDBF86E0E0E6F0E0DE01119635
:1003500001900D928A95E1F7FE01379684E0DF0166
:100360001D928A95E9F786E0EAE6F0E0DE0158960C
:1003700001900D928A95E1F786E0E0E7F0E0DE017A
:10038000529601900D928A95E1F7CE0142969C8794
:100390008B8706969E878D8787E08F8786E0888B80
:1003A00085E0898BCE010B960E946601BE016F5FCE
:1003B0007F4FCE010B960E945201BFEF29E688E1E4
:1003C000B15020408040E1F700C00000F6CFF89423
:0203D000FFCF5D
:1003D20048454C4C4F000000000031003200300014
:0603E20034003500330079
:00000001FF
