:100000000C942A000C943F000C943F000C943F0089
:100010000C943F000C943F000C943F000C943F0064
:100020000C943F000C943F000C943F000C943F0054
:100030000C943F000C943F000C943F000C943F0044
:100040000C943F000C943F000C943F000C943F0034
:100050000C943F0011241FBECFE5D8E0DEBFCDBF1A
:1000600010E0A0E6B0E0E2EDF3E002C005900D92F2
:10007000A636B107D9F70E94BD010C94E7010C9494
:1000800000001F93CF93DF93D82FC92F142F462F33
:1000900062E070E00E941A01412F62E070E08D2F53
:1000A0009C2FDF91CF911F910C941A01462F20E0D5
:1000B00030E062E070E00E947D0187EC90E0019703
:1000C000F1F700C0000008950F931F93CF93DF93C3
:1000D000D82FC92F162F042F20E030E0462F62E0E2
:1000E00070E00E947D0187EC90E00197F1F700C07D
:1000F000000021E030E0402F62E070E08D2F9C2F67
:100100000E947D0187EC90E00197F1F700C00000AC
:1001100021E030E0412F62E070E08D2F9C2F0E94A3
:100120007D0187EC90E00197F1F700C00000DF91BE
:10013000CF911F910F910895EF92FF920F931F930C
:10014000CF93DF93D82FC92F062F142FF22E88E0DC
:10015000E82E20E030E0412F62E070E08D2F9C2FF0
:100160000E947D0187EC90E00197F1F700C000004C
:1001700021E030E0F0FC02C020E030E0402F62E0FF
:1001800070E08D2F9C2F0E947D0187EC90E00197FD
:10019000F1F700C0000021E030E0412F62E070E0A4
:1001A0008D2F9C2F0E947D0187EC90E00197F1F745
:1001B00000C00000F694EA9461F620E030E0412FA0
:1001C00062E070E08D2F9C2F0E947D0121E030E0E5
:1001D000402F62E070E08D2F9C2F0E947D0187EC04
:1001E00090E00197F1F700C0000021E030E0412FDE
:1001F00062E070E08D2F9C2F0E947D0187EC90E0E3
:100200000197F1F700C0000020E030E0412F62E0EC
:1002100070E08D2F9C2F0E947D0187EC90E001976C
:10022000F1F700C00000DF91CF911F910F91FF9077
:10023000EF900895FC019B016130710591F4A0815C
:10024000B1819C9101C0220F4A95EAF7822F8095D7
:1002500089238C930280F381E02D8081822B80831F
:10026000089561157105B1F4A081B1812C9181E0EF
:1002700090E0BC0102C0660F771F4A95E2F7AB0120
:100280004095822F84238C930280F381E02D80811E
:100290008423E5CF62307105B1F4A081B1812C9146
:1002A00081E090E0BC0102C0660F771F4A95E2F73B
:1002B000AB01822F862B8C930280F381E02D80810D
:1002C0004095482340830895FC01A081B1816115C8
:1002D000710511F41C9208956130710539F41C9276
:1002E0000280F381E02D8FEF808308958FEF8C9350
:1002F0000280F381E02D10820895DC01F901623063
:10030000710509F52130310561F412960D90BC910B
:10031000A02D8C9101C0EE0F4A95EAF7E82BEC93E3
:100320000895EF2B81F41296ED91FC91208181E0EC
:1003300090E0BC0102C0660F771F4A95E2F7AB015F
:100340004095422340830895DC011296ED91FC9183
:1003500060830895DC011496ED91FC91808121E089
:1003600030E001C0220F6A95EAF782230895DC018C
:100370001496ED91FC918081089500D000D000D0BA
:10038000CDB7DEB786E0E0E6F0E08E010F5F1F4FED
:10039000D80101900D928A95E1F741E060E0C80133
:1003A0000E9441002AEA41E060E0C8010E949C00EE
:1003B00041E060E0C8010E9464002FEF89E698E107
:1003C000215080409040E1F700C00000EBCFF8944E
:0203D000FFCF5D
:0603D2003A003B00390077
:00000001FF
