:100000000C942A000C943F000C943F000C943F0089
:100010000C943F000C943F000C943F000C943F0064
:100020000C943F000C943F000C943F000C943F0054
:100030000C943F000C943F000C943F000C943F0044
:100040000C943F000C943F000C943F000C943F0034
:100050000C943F0011241FBECFE5D8E0DEBFCDBF1A
:1000600010E0A0E6B0E0E6ECFAE002C005900D92E8
:10007000A03AB107D9F70E94F6010C9461050C94DF
:1000800000000C947E01EF92FF920F931F93CF9389
:10009000DF9300D000D000D00F92CDB7DEB77C0147
:1000A0008B010E948701F7018081880F0E949001D7
:1000B00080E00E9490010E948D010E948701F7015B
:1000C0008081880F8F5F0E949001BE016F5F7F4F1C
:1000D00087E090E00E9497010E948D018F81F801D6
:1000E00086838E818F7185838D8184838C818F73CC
:1000F00083838B81828389819A81918380832796F0
:100100000FB6F894DEBF0FBECDBFDF91CF911F9128
:100110000F91FF90EF9008956AE00E947A02829515
:10012000807F892B08950F931F93CF93DF938C01CA
:10013000EB01FC018081811102C088E680830E946E
:100140008701F8018081880F0E94900180E00E9461
:10015000900188810E948C000E94900189810E94F8
:100160008C000E9490018A810E948C000E94900164
:100170008B810E948C000E9490018C810E948C00D7
:100180000E9490018D810E948C000E9490018E81BE
:100190000E948C000E949001DF91CF911F910F91DE
:1001A0000C948D01982F92959F708F702AE0929FEA
:1001B000800D11240895FC019B016130710591F4BB
:1001C000A081B1819C9101C0220F4A95EAF7822F4C
:1001D000809589238C930280F381E02D8081822B8E
:1001E0008083089561157105B1F4A081B1812C91CE
:1001F00081E090E0BC0102C0660F771F4A95E2F7EC
:10020000AB014095822F84238C930280F381E02DF3
:1002100080818423E5CF62307105B1F4A081B18182
:100220002C9181E090E0BC0102C0660F771F4A95D7
:10023000E2F7AB01822F862B8C930280F381E02DB5
:1002400080814095482340830895FC01A081B181BD
:100250006115710511F41C9208956130710539F42E
:100260001C920280F381E02D8FEF808308958FEF41
:100270008C930280F381E02D10820895DC01F90156
:100280006230710509F52130310561F412960D9047
:10029000BC91A02D8C9101C0EE0F4A95EAF7E82B96
:1002A000EC930895EF2B81F41296ED91FC9120814F
:1002B00081E090E0BC0102C0660F771F4A95E2F72B
:1002C000AB014095422340830895DC011296ED91E5
:1002D000FC9160830895DC011496ED91FC9180817E
:1002E00021E030E001C0220F6A95EAF782230895E9
:1002F000DC011496ED91FC918081089581B1887F95
:1003000081B987E080B986B7846086BF089584EAA2
:1003100086BF06B607FEFDCF089584E986BF08951F
:1003200083B984E886BF06B607FEFDCF08959C0119
:10033000FB0180E090E0B9016150710954E8A4EC40
:10034000821793070CF008958617970744F4A6BF09
:1003500006B607FEFDCF43B141930196F1CF56BFDC
:1003600006B607FEFDCFF7CFCF93DF9300D000D0C6
:1003700000D0CDB7DEB786E0E0E6F0E0DE01119612
:1003800001900D928A95E1F742E062E070E0CE01C3
:1003900001960E94DB0020E030E042E062E070E085
:1003A000CE0101960E943E011BB88AB188618AB9CC
:1003B00080B5866080BD10BC83E389B90F900F9033
:1003C0000F900F900F900F90DF91CF910895FC0147
:1003D0008191811101C008958CB95E9BFECF8FE1A0
:1003E0009EE40197F1F700C00000F2CFCDB7DEB771
:1003F000C654D1090FB6F894DEBF0FBECDBF80E85A
:1004000095E226969FAF8EAF2697CE018C5B9F4FCD
:100410000E94B4018E010A5B1F4F88E6F8018083B9
:100420000E944100C02EB12E86E6E82E80E0F82E14
:100430008E010F5F1F4F9CE3D92EFFEF24E38CE06A
:10044000F15020408040E1F700C00000BE01635C35
:100450007F4F8C2D9B2D0E94430024968FAD2497B7
:10046000282F082E000C330B3F938F9323968FADCC
:100470002397282F082E000C330B3F938F9322963F
:100480008FAD2297282F082E000C330B3F938F93AC
:1004900021968FAD2197282F082E000C330B3F9308
:1004A0008F938DAD282F082E000C330B3F938F9325
:1004B0008EAD282F082E000C330B3F938F938FADFA
:1004C000282F082E000C330B3F938F93FF92EF924F
:1004D0001F930F930E948602C8010E94E701F80152
:1004E0002D2D11922A95E9F70FB6F894DEBF0FBEB5
:1004F000CDBFA3CF992778E0880F991F961708F0F2
:10050000961B881F7A95C9F780950895AEE0B0E0F4
:10051000ECE8F2E00C9438050D891E8986E08C83A6
:100520001A8309838FEF9FE79E838D83AE01475E19
:100530005F4F6F89788DCE0101960E94A9022F81AD
:100540003885020F131FF80110822E96E4E00C94F8
:100550005405ABE0B0E0EFEAF2E00C942D056C013D
:100560007B018A01FC0117821682838181FFCBC146
:100570009AE0592EF6012381F70123FD859123FF8F
:1005800081917F01882309F45BC1853239F423FD11
:10059000959123FF91917F01953229F4B60190E066
:1005A0000E949C04E7CF912C612C712CFFE1F71580
:1005B00040F19B32D9F058F49032D1F09332F1F0FF
:1005C0009E3299F576FC3CC1689476F806C09D325F
:1005D00091F09033C1F4689470F8F70123FD959180
:1005E00023FF91917F019111E1CF26C0689471F8AA
:1005F000689472F8F2CF689473F8EFCF689474F847
:10060000ECCF77FC19C080ED890F8A30C8F676FEF2
:1006100005C0959C800D1124982EDFCF659C800D20
:100620001124682E689475F8D8CF9C3619F4689414
:1006300077F8D3CF983689F2892F8F7D8554833010
:1006400008F488C0933609F4A6C0933709F4A9C00A
:10065000933509F4B5C0943619F0993609F0DFC026
:10066000F80177FED5C061917191819191918F01CF
:10067000272D2F76822E97FF09C090958095709533
:1006800061957F4F8F4F9F4F689487F82AE030E045
:10069000AE014F5F5F4F5A010E94CC048A19A82E09
:1006A000BA2C782C86FE0CC0E89470F8A91440F49B
:1006B00084FE05C082FC03C0F82DFE7E7F2EB92C7F
:1006C00074FEFAC0FE01EA0DF11D8081803309F04D
:1006D000ECC0272D297E722E73FC0EC070FEFBC06D
:1006E0009A2CB61418F4960C9B18B62C862D8B19E0
:1006F0006B1408F480E0B80EB61408F0EEC06B1866
:1007000074FEEDC0B60180E390E00E949C0472FE8E
:1007100009C088E590E071FC02C088E790E0B6016E
:100720000E949C04A91408F4E7C0AA94B12C4FEFCE
:10073000A41AB40ACE0101964C01A80EB91EF50107
:1007400082915F01B60190E00E949C048A149B0490
:10075000B1F717C00C5F1F4F8FE389838824839400
:10076000912CAE014F5F5F4F5A01E89477F873FC0C
:1007700005C0862D90E08816990698F181149104A1
:10078000B9F5662009F4F6CEB60180E290E00E9449
:100790009C046A94F6CFF801808189830E5F1F4F15
:1007A000DDCFF801A190B1908F01692D70E076FC4A
:1007B00002C06FEF7FEFC5010E9491044C01D5CFBD
:1007C000F801A190B1908F01692D70E076FC02C014
:1007D0006FEF7FEFC5010E9486044C01689477F8A3
:1007E000C6CFB60180E290E00E949C046A94C1CF1B
:1007F000F50177FC859177FE81915F01B60190E06C
:100800000E949C0461106A94F1E08F1A9108B6CF9F
:1008100061917191072E000C880B990B28CF872CC2
:10082000E89484F82AE030E0953739F1572D597F64
:10083000852E9037A9F058F49835A9F09F36D9F055
:10084000F601868197812B96EFE00C944905983745
:10085000B9F784FE02C0689482F820E130E00DC050
:10086000689484F8F6CF74FE03C0852F8660882EC6
:1008700020E132E002C028E030E0F80187FE10C03D
:1008800061917191819191918F01FE0131965F018A
:10089000AF010E94CC048A19A82EE89487F800CFF3
:1008A0006191719180E090E0EFCF72FC02C0B3944F
:1008B00013CFB394B39410CF872D8678882309F48F
:1008C0000BCFF5CFB60180E290E00E949C048394A8
:1008D0008614C0F30BCF8B2CFBCF612C11CF872D4F
:1008E0008678882309F41ECF80E271FC8BE277FCC6
:1008F0008DE2B60190E014CFB60180E390E00E9453
:100900009C049A940FCF8FEF9FEF9DCFFC01059031
:10091000615070400110D8F7809590958E0F9F1F01
:100920000895FC016150704001900110D8F7809546
:1009300090958E0F9F1F08950F931F93CF93DF9372
:10094000182F092FEB018B8181FD09C01FEF0FEFDD
:10095000812F902FDF91CF911F910F91089582FFEA
:1009600014C02E813F818C819D81281739073CF46A
:10097000E881F981CF0101969983888310838E8164
:100980009F8101969F838E83E3CFE885F985812F30
:100990000995892BA1F3DACFFA01AA27283051F162
:1009A000203181F1E8946F936E7F6E5F7F4F8F4FA0
:1009B0009F4FAF4FB1E03ED0B4E03CD0670F781FFF
:1009C000891F9A1FA11D680F791F8A1F911DA11DE4
:1009D0006A0F711D811D911DA11D20D009F468941D
:1009E0003F912AE0269F11243019305D3193DEF6C5
:1009F000CF010895462F4770405D4193B3E00FD07B
:100A0000C9F7F6CF462F4F70405D4A3318F0495D65
:100A100031FD4052419302D0A9F7EACFB4E0A69548
:100A20009795879577956795BA95C9F7009761056A
:100A3000710508959B01AC010A2E069457954795C0
:100A400037952795BA95C9F7620F731F841F951FB5
:100A5000A01D08952F923F924F925F926F927F92C6
:100A60008F929F92AF92BF92CF92DF92EF92FF92BE
:100A70000F931F93CF93DF93CDB7DEB7CA1BDB0B6A
:100A80000FB6F894DEBF0FBECDBF09942A8839880F
:100A900048885F846E847D848C849B84AA84B98416
:100AA000C884DF80EE80FD800C811B81AA81B98122
:100AB000CE0FD11D0FB6F894DEBF0FBECDBFED0136
:060AC0000895F894FFCF39
:100AC60031003200300054696D6520253032783AA5
:100AD600253032783A253032782009204461793A37
:100AE6002025303278200920446174653A2025306B
:100AF60032782E253032782E25303278200D20009F
:00000001FF
